:020000040800F2
:1000000098080020290200083F240008AB200008BF
:100010003D2400080B050008D92A00080000000054
:100020000000000000000000000000004324000861
:1000300031050008000000004124000845240008A4
:10004000430200084302000843020008430200087C
:10005000430200084302000843020008430200086C
:10006000430200084302000843020008430200085C
:10007000430200084302000843020008430200084C
:100080004302000843020008430200082505000857
:100090000D05000819050008430200084302000886
:1000A00043020008F124000843020008430200084C
:1000B0004302000843020008FD2400084302000830
:1000C00043020008430200084302000843020008FC
:1000D00043020008C12A0008CD2A00084302000894
:1000E00043020008430200084302000843020008DC
:1000F00043020008430200084302000843020008CC
:1001000043020008430200084302000843020008BB
:1001100043020008430200084302000843020008AB
:10012000430200084302000843020008430200089B
:10013000430200084302000843020008430200088B
:10014000430200084302000843020008430200087B
:10015000430200084302000843020008430200086B
:10016000430200084302000843020008430200085B
:100170004302000843020008430200080000000098
:10018000430200084302000800F002F800F03CF8C7
:100190000AA090E8000C82448344AAF10107DA45E2
:1001A00001D100F031F8AFF2090EBAE80F0013F0F8
:1001B000010F18BFFB1A43F001031847882B0000FA
:1001C000A82B0000103A24BF78C878C1FAD852078B
:1001D00024BF30C830C144BF04680C6070470000C1
:1001E0000023002400250026103A28BF78C1FBD840
:1001F000520728BF30C148BF0B6070471FB502F0DF
:100200008FFD1FBD10B510BD00F046F91146FFF778
:10021000F5FF02F073FC00F064F903B4FFF7F2FF9E
:1002200003BC00F06BF9000009488047094800470B
:10023000FEE7FEE7FEE7FEE7FEE7FEE7FEE7FEE796
:10024000FEE7FEE704480549054A064B70470000F3
:10025000E124000889010008980200209808002085
:10026000980400209804002053EA020C00F06980F2
:100270002DE9F04B4FF00006002B1FBFB3FA83F5BA
:1002800003FA05F424FA05F65E4012BF1643B2FAEB
:1002900082F502FA05F4C5F120051EBF22FA05FC1D
:1002A00044EA0C04203556EA044C4FEA144418BFC3
:1002B000641C4FF000084FF00009904271EB030CF2
:1002C00039D3002919BFB1FA81F701FA07F6B0FA5C
:1002D00080F700FA07F6C7F120071EBF20FA07FCD7
:1002E00046EA0C062037B6FBF4FCA7EB0507103FE7
:1002F00007F01F0BCBF120060CFA0BFB2CFA06F6CD
:1003000044BFB3460026202FA4BF5E464FF0000B2B
:100310005BEA060C08BF4FF0010B19EB0B09ABFBB6
:10032000027C48EB0608C01B06FB02CC0BFB03CC8F
:1003300071EB0C01C1E70B46024641464846BDE859
:10034000F08B13B54FF000004FF00001AFF30080C9
:10035000BDE81C407047032A40F2308010F0030CC7
:1003600000F0158011F8013BBCF1020F624498BF08
:1003700011F801CB00F8013B38BF11F8013BA2F1A5
:10038000040298BF00F801CB38BF00F8013B11F020
:10039000030300F04F80083AC0F0088051F8043B96
:1003A000083A51F804CBA0E80810F5E7121D5CBF2D
:1003B00051F8043B40F8043BAFF30080D20724BF60
:1003C00011F8013B11F801CB48BF11F8012B24BFF4
:1003D00000F8013B00F801CB48BF00F8012B704743
:1003E0004FF0000200B5134694469646203922BFCE
:1003F000A0E80C50A0E80C50B1F12001BFF4F7AF19
:10040000090728BFA0E80C5048BF0CC05DF804EBFA
:10041000890028BF40F8042B08BF704748BF20F868
:10042000022B11F0804F18BF00F8012B7047704766
:100430007047704710B5203AC0F00B80B1E81850F3
:10044000203AA0E81850B1E81850A0E81850BFF4BE
:10045000F5AF5FEA027C24BFB1E81850A0E818505D
:1004600044BF18C918C0BDE810405FEA827C24BFB1
:1004700051F8043B40F8043B08BF7047D20728BF3F
:1004800031F8023B48BF11F8012B28BF20F8023B8E
:1004900048BF00F8012B7047754600F02BF8AE46B8
:1004A00005006946534620F00700854618B020B580
:1004B000FFF7C8FEBDE820404FF000064FF00007F0
:1004C0004FF000084FF0000B21F00701AC46ACE8FC
:1004D000C009ACE8C009ACE8C009ACE8C0098D4669
:1004E000704710B50446AFF300802046BDE81040C9
:1004F000FFF793BE004870473802002001491820DA
:10050000ABBEFEE7260002007047FEE7014800F0A0
:1005100066B800005C000020014800F060B80000F0
:100520005C000020014800F05AB800005C00002088
:10053000704772B6FEE700002DE9F041254C01211D
:10054000254E23790546002743B120468078421C7A
:10055000D2B2012B09D0022B13D037E0AA2D35D10E
:1005600021713070A170BDE8F081022323713554F0
:10057000A2700A2D03D00B2DF5D1E370F3E7E170E3
:10058000F1E7232822D23554A270E078022804D162
:10059000BB2DE8D102F030FB2771E0780128E2D1D1
:1005A000A0782328DFD1BB2DDDD156F8020F00BA89
:1005B000F17820F0FF000843A0607168F27909BA71
:1005C00021F0FF011143E16002F0B6FA2771E770F4
:1005D000C9E7000000000020EC01002070472DE971
:1005E000F05F0546006800244669D0F804908768EB
:1005F000D0F80CB0D0F810A0D0F81880F10748D08F
:10060000F90714D001218160B80703D5284600F00E
:10061000F2F90CE0780702D54FF4006407E03807E0
:1006200002D54FF4805402E0284600F0E3F9F805C3
:1006300016D529684FF480708860B80503D5284620
:1006400000F0DBF90CE0780502D544F4005407E033
:10065000380502D544F4804402E0284600F0CCF985
:10066000F80316D529684FF480308860B80303D5A5
:10067000284600F0C4F90CE0780302D544F40044A5
:1006800007E0380302D544F4803402E0284600F045
:10069000B5F9300707D55FEACB6004D5296810208B
:1006A00044F40074C86070074FF0080707D55FEA8C
:1006B0000B7004D52868C760284600F069F9B007B8
:1006C00006D52868C068800702D0284600F061F986
:1006D000700607D55FEACA6004D52968102044F483
:1006E00080640861B00607D55FEA0A7004D52868FF
:1006F0000761284600F04EF9F00606D52868006923
:10070000800702D0284600F046F9B00308D55FEA1A
:10071000C96005D5296810204860284600F03CF9DA
:10072000F00307D55FEA097004D5286847602846BA
:1007300000F066F9300446D55FEA497040D5F0050F
:1007400004D55FEAC87001D044F00104B00504D5B7
:100750005FEA887001D544F00204700504D55FEAB1
:10076000487001D544F00404300529D518F0700F05
:1007700026D008F07000402815D006DC102809D0DB
:1007800020280AD0302816D10AE050280ED0602840
:1007900011D10EE044F008040DE044F010040AE02A
:1007A00044F0200407E044F0400404E044F08004F6
:1007B00001E044F480742868816921F0700181614E
:1007C000296804204860002C05D0686A20436862CC
:1007D0002846FFF703FFBDE8F09F70B5040003D083
:1007E00094F8200010B104E0012070BD204600F014
:1007F00081F82068016841F00101016000F05AFAB7
:100800000546052604E000F055FA401B0A2811D8D9
:1008100020684068C007F6D02068016821F0020116
:10082000016000F047FA05460BE000F043FA401B78
:100830000A2806D9606A40F40030606284F82060BB
:10084000D2E7206840688007EFD4207E0128206826
:1008500001683DD021F080010160607E01282068A0
:10086000016838D021F040010160A07E0128206895
:10087000016833D021F020010160E07E012820686A
:1008800001682ED041F010010160207F012820680E
:10089000016829D021F008010160607F01282068EB
:1008A000016824D021F004010160D4E90201084369
:1008B000D4E90412114308436168491E08432168C2
:1008C000C86100206062012084F82000002070BD13
:1008D00041F08001C0E741F04001C5E741F020014F
:1008E000CAE721F01001CFE741F00801D4E741F059
:1008F0000401D9E710B586B0044614216846FFF715
:100900006FFD20492068884239D11F4800210268C4
:1009100042F000720260006800F0007005901A4812
:100920001038026842F001020260006800F0010025
:1009300005904FF4C05000900220CDE90101032042
:100940000390092004906946104800F0B5F8002291
:100950001146132000F01CFA132000F00BFA0022BD
:100960001146142000F014FA142000F003FA0022BB
:100970001146152000F00CFA152000F0FBF906B026
:1009800010BD0000006400404038024000000240FA
:1009900070477047704770477047000070B5044655
:1009A00090F82000012804D0606A40F400206062C2
:1009B00018E0022084F820002068016821F001017D
:1009C000016000F077F905460EE000BF00F072F913
:1009D000401B0A2808D9606A40F400306062052094
:1009E00084F82000012070BD20684068C007EDD168
:1009F000606270BD704770477047704770477047BE
:100A000070472DE9F0410446876D00F053F9064622
:100A100094F835000025022806D08020606584F80F
:100A200034500120BDE8F0812068016821F01601F2
:100A300001602068416921F080014161206C08B9A2
:100A4000A06C20B12068016821F0080101602068D5
:100A5000016821F0010101600CE000F02BF9801B1E
:100A6000052807D920206065032084F8350084F824
:100A70003450D7E720680068C007EED194F85C10C6
:100A80003F208840B860012084F8350084F8345055
:100A90000020C7E790F83510022903D08021416576
:100AA00001207047052180F835100068016821F0A9
:100AB00001010160002070472DE9F84FDFF8BCA16B
:100AC0000022012503264FF00F090AF1040BAAF1B9
:100AD000040E00BF0B6805FA02F42340A34270D154
:100AE0000F7907F00307012F01D0022F16D1876875
:100AF0004FEA420806FA08FC27EA0C07D1F80CC0B6
:100B00000CFA08FC4CEA070CC0F808C04768A74379
:100B10000C79C4F3001494403C4344600C79E443E2
:100B2000A4070AD0C4684FEA420C06FA0CF7BC438B
:100B30008F6807FA0CF72743C7600C7904F00304A9
:100B4000022C12D1D40800EB840CDCF820405707AB
:100B5000FF0E09FA07F824EA0804D1F8108008FA11
:100B600007F848EA0408CCF8208004684FEA420CF1
:100B700006FA0CF7BC430F7907F0030707FA0CF7E6
:100B8000274307604C6814F4403F70D03C4C276802
:100B900047F480472760246822F0030704F4804468
:100BA0000094384C07EB040CDCF8084897074FEA30
:100BB000177809FA08F7BC43334FB84202D100272F
:100BC00024E054E0314FB84201D101271EE0304FFC
:100BD000B84201D1022719E02E4FB84201D10327B4
:100BE00014E02D4FB84201D104270FE02B4FB8423B
:100BF00001D105270AE02A4FB84201D1062705E0B6
:100C0000284FB84201D1072700E0082707FA08F764
:100C10002743CCF80878DAF800405746D1F804C0EA
:100C20009C435FEACC2C00D51C433C60DBF80040C1
:100C30005F46D1F804C09C435FEA8C2C00D51C436E
:100C40003C60DEF800407746D1F804C09C435FEA80
:100C50008C3C00D51C433C60084F083F3C68D1F8F1
:100C600004C09C435FEACC3C00D51C433C60521C52
:100C7000102AFFF42FAFBDE8F88F0000083C0140B8
:100C800044380240003001400000024000040240AD
:100C900000080240000C0240001002400014024014
:100CA00000180240001C02400AB18161704709042B
:100CB000FBE700000148806870470000100000203A
:100CC000024881680278114481607047100000205A
:100CD0000B4810B5016841F400710160016841F4EE
:100CE00080610160016841F480710160032000F0BF
:100CF0006FF80F2000F006F800F024F8002010BD77
:100D0000003C024070B50D4D04464FF47A712878CE
:100D1000B1FBF0F00A490968B1FBF0F000F00AFB02
:100D200048B9102C07D200222146501E00F030F89E
:100D300000206C6070BD012070BD0000100000201C
:100D40001C0000200A4808B5016841F48041016098
:100D5000006800F4804000900548001F016841F0E1
:100D600080510160006800F08050009008BD0000D4
:100D700044380240002809DB00F01F0201219140A5
:100D80004009800000F1E020C0F800117047000029
:100D9000F0B40E4B1B680C46C3F30223C3F10705E6
:100DA000042D00D90425191D072901D2002300E0D4
:100DB000DB1E012606FA05F1491E214099409E409E
:100DC000761E16403143F0BC01F087BE0CED00E00A
:100DD000064900F0070208684FF6FF03184040EA92
:100DE0000220034A10430860704700000CED00E049
:100DF0000000FA052DE9F0470E46050065D0DFF842
:100E00001481D8F80000F7B200F00700B04207D212
:100E100088F80070D8F8000000F00700B04254D104
:100E200028683D4C810712D5400703D5206840F45F
:100E3000E05020602878000703D5206840F4604027
:100E400020602068A96820F0F0000843206028781E
:100E5000C0072DD0304968680839012812D002280F
:100E600013D0032811D00968890700292DDA2168D9
:100E700021F0030101432160FFF71CFF814641F28D
:100E8000883A0EE009688903EFE709688901ECE711
:100E9000FFF710FFA0EB0901514502D90320BDE87F
:100EA000F0872068696800F00C00B0EB810FEFD18B
:100EB000D8F80010404601F00701B14207D9077089
:100EC000006800F00700B04201D00120E7E7287871
:100ED000400705D52068E96820F4E0500843206009
:100EE0002878000706D52068296920F4604040EA88
:100EF000C100206000F038F82168084AC1F30311EE
:100F0000515CC8400649086006480068FFF7FAFED1
:100F10000020C4E7003C0240083802402A2D0008A7
:100F20001C000020140000200448054900680968DE
:100F3000044AC1F38221515CC84070471C00002064
:100F4000083802403A2D000804480549006809683D
:100F5000044AC1F34231515CC84070471C00002074
:100F6000083802403A2D0008154810B5006810F006
:100F70000C02144813D04110042A0FD0082A0ED1B5
:100F80000F4C241F2268236802F03F025B0207D542
:100F90002068C0F38810A0FB010106E0084610BDE0
:100FA0002168C1F38811A1FB00010023FFF75CF960
:100FB0002168C1F30141491C4900B0FBF1F010BDAB
:100FC000083802400024F4002DE9F84F04006ED0E8
:100FD0002078DFF84C93C007A9F104054AD009F145
:100FE00004000168C1F38101012908D00068C0F341
:100FF000810002280AD1D9F80000400206D52868ED
:10100000800337D560680028E1D033E06068B0F530
:10101000803F10D0B0F5A02F286810D020F4803089
:101020002860286820F4802028606068A8B1FFF755
:1010300041FE06460DE0286840F48030F4E740F4B5
:1010400080202860F7E700BFFFF734FE801B64288C
:1010500073D828688003F7D50CE0FFF72BFE06460F
:1010600005E000BFFFF726FE801B6428F0D8286843
:101070008003F7D42078DFF8AC8280074FF0000AB5
:101080003ED5A748001D016811F00C0F08D000687C
:10109000C0F3810002280BD1D9F80000400207D428
:1010A0002868800716D5E068012800D112E033E1F6
:1010B000E068B8B10120C8F80000FFF7FBFD064664
:1010C00005E000BFFFF7F6FD801B0228C0D82868A6
:1010D0008007F7D52868216920F0F80040EAC100B0
:1010E00028600DE0C8F800A0FFF7E4FD064604E024
:1010F000FFF7E0FD801B02281FD828688007F7D47F
:101100002078000722D5864F87486169703771B112
:1011100001210160FFF7CEFD064604E0FFF7CAFD9E
:10112000801B022809D838688007F7D50EE0C0F880
:1011300000A0FFF7BFFD064605E082E0FFF7BAFD1D
:10114000801B02287DD838688007F7D420784007B4
:1011500068D5DFF8CCB100270BF13C0BDBF80000C1
:10116000C0000BD4DBF8001041F08051CBF8001028
:10117000DBF80000012700F0805000906B4E3068D3
:10118000C00510D4306840F480703060FFF792FDE5
:10119000009005E0FFF78EFD0099401A022850D814
:1011A0003068C005F6D55E4EA0686C3601280FD0B9
:1011B0000528306810D020F001003060306820F041
:1011C00004003060A068B8B1FFF774FD00900FE034
:1011D000306840F00100F4E740F004003060F7E7C9
:1011E000FFF768FD0099411A41F28830814266D8C4
:1011F00030688007F4D50EE0FFF75CFD009007E053
:10120000FFF758FD0099411A41F28830814256D8C3
:1012100030688007F4D42FB1DBF8001021F0805142
:10122000CBF80010A069C8B33D49091D0968C1F396
:10123000810102294AD00228504607D0C8F8600030
:1012400000E03CE0FFF736FD04463BE04746C8F8C7
:101250006000FFF72FFD064605E000BFFFF72AFDFF
:10126000801B02282BD828688001F7D4D4E9070115
:101270000843A16A2E4A490802EB0141626A41EA29
:101280008211084394F82C1040EA0161C9F800105B
:1012900001203866FFF70EFD044606E03EE000BF81
:1012A000FFF708FD001B022809D828688001F7D540
:1012B00034E000BFFFF7FEFC001B022802D9032028
:1012C000BDE8F88F28688001F4D427E00128F7D022
:1012D000D9F80000E26900F4800191421CD1226A31
:1012E00000F03F01914217D147F6C071626A014098
:1012F000B1EB821F10D1A26A4FF0FF3300F44031EE
:1013000003EB5202B1EB024F06D194F82C1000F01F
:101310007060B0EB016F01D00120D1E70020CFE772
:101320000438024000004742800E474200700040EF
:101330000000FFFF10B5401EB0F1807F01D30120F7
:1013400010BD4FF0E02460610F21601701F0C5FB74
:101350000020A06107202061002010BD7047704769
:1013600010B590F83C20012A22D0012280F83C20C0
:10137000CA688C6822F4407222434C6822F480626E
:1013800022430C6822F4006222430C6922F480524A
:1013900022434C6922F400522243C969002322F4FB
:1013A00080420A4301684A6480F83C30002010BD46
:1013B000022010BD70B590F83C20012A32D00124E3
:1013C00080F83C40022280F83D2003685A689D68FE
:1013D00022F070060A6832435A60134B02689A4240
:1013E00014D0B2F1804F11D0104B9A420ED0104B56
:1013F0009A420BD00F4B9A4208D00F4B9A4205D01D
:101400000E4B9A4202D00E4B9A4204D1496825F005
:1014100080031943916080F83D40002180F83C1022
:10142000084670BD022070BD00000140000400406D
:1014300000080040000C0040000401400040014052
:101440000018004010B5040003D094F83D0010B11E
:1014500007E0012010BD002084F83C00204600F089
:101460001FF8022084F83D00211D206801F04CF88F
:10147000012084F8460084F83E0084F83F0084F898
:10148000400084F8410084F8420084F8430084F866
:10149000440084F8450084F83D00002010BD0000A1
:1014A00008B51B4A01681B4891420ED1016841F002
:1014B000010101600068002200F001000090114667
:1014C0001920FFF765FC192012E0134A914213D14D
:1014D0001048001F016841F004010160006800220B
:1014E00000F00400009011461E20FFF751FC1E2062
:1014F000BDE80840FFF73EBC084A914207D10168A9
:1015000041F002010160006800F00200009008BD97
:10151000000001404438024000080040000401403F
:1015200090F83D10012901D001207047022180F878
:101530003D100168CA6842F00102CA6000681149A2
:10154000884214D0B0F1804F11D00F4988420ED09C
:101550000E4988420BD00E49884208D00D49884276
:1015600005D00D49884202D00C49884204D18168D7
:1015700001F00701062903D0016841F00101016073
:1015800000207047000001400004004000080040B7
:10159000000C0040000401400040014000180040E1
:1015A0000168CA6822F00102CA6001680A6A41F251
:1015B00011131A4207D10A6A9B101A4203D10A6812
:1015C00022F001020A60012180F83D1000207047DE
:1015D00070B5044690F83C000025012817D001267C
:1015E00084F83C60022084F83D002068826822F084
:1015F000770222F47F4282600868502838D00DDCE0
:1016000020284FD005DC90B3102811D14AE00220E9
:1016100070BD302846D040280AD13BE060282FD04A
:1016200070280DD0B0F5805F03D0B0F5005F12D008
:10163000012584F83D60002084F83C00284670BDF8
:10164000CB68D1E90121206800F0D7FF20688168CC
:1016500041F0770109E0CB68D1E90121206800F071
:10166000CCFF2068816841F480418160E1E719E0A6
:10167000CA684968206801F095F85021206806E0A2
:10168000CA684968206801F09EF86021206800F06F
:10169000BEFFCEE7CA684968206801F083F84021A0
:1016A0002068F4E7226801461046F0E770472DE90C
:1016B000F04104460068C66805694FF00007A907B5
:1016C00013D5B10711D5F91E0161012020772068DB
:1016D00080698007204602D0FFF7E8FF04E000F0B1
:1016E000C3F8204600F055F92777680716D570072C
:1016F00014D521686FF0040008610220207720686B
:10170000806910F4407F204602D0FFF7CFFF04E04D
:1017100000F0AAF8204600F03CF92777280715D5F5
:10172000300713D521686FF0080008610420207786
:101730002068C0698007204602D0FFF7B7FF04E0A9
:1017400000F092F8204600F024F92777E80616D535
:10175000F00614D521686FF010000861082020778A
:101760002068C06910F4407F204602D0FFF79EFF3A
:1017700004E000F079F8204600F00BF92777E8073D
:1017800008D0F00706D021686FF0010008612046FC
:1017900000F0A2F9280608D5300606D521686FF0BA
:1017A000800008612046FFF7D9FD680608D570065D
:1017B00006D521686FF040000861204600F00AFA63
:1017C000A8060AD5B00608D521686FF02000086188
:1017D0002046BDE8F041FFF7C2BDBDE8F081000042
:1017E00010B586B0044614216846FEF7F9FD23685B
:1017F000184C002118480222A34211D1036843F07B
:1018000008030360006800F0080005904FF44050A2
:101810000090CDE90121CDE9031269460F4814E09B
:101820000F4CA34213D1036843F004030360006824
:1018300000F0040005904FF410700090CDE90121F4
:101840000320CDE9031069460648FFF735F906B0D5
:1018500010BD00000008004030380240000C02407B
:101860000004014000080240704770B5044690F83B
:101870003C0000260D4601280FD0012084F83C00D2
:101880006AB1042A1DD0082A2FD00C2A3FD0012685
:10189000002084F83C00304670BD022070BD2068F6
:1018A00000F0BEFE2068816941F008018161206876
:1018B000816921F004018161206881692A691143ED
:1018C00011E0206800F0DCFE2068816941F40061CD
:1018D00081612068816921F480618161206881696A
:1018E0002A6941EA02218161D2E7206800F0FEFE08
:1018F0002068C16941F00801C1612068C16921F017
:101900000401C1612068C1692A69114311E020689E
:1019100000F020FF2068C16941F40061C1612068C6
:10192000C16921F48061C1612068C1692A6941EA05
:101930000221C161ACE710B5040003D094F83D006A
:1019400010B107E0012010BD002084F83C002046C3
:1019500000F01EF8022084F83D00211D206800F0F0
:10196000D3FD012084F8460084F83E0084F83F004F
:1019700084F8400084F8410084F8420084F8430071
:1019800084F8440084F8450084F83D00002010BD30
:101990007047704710B50446022249B104290ED0A1
:1019A000082913D094F84100012816D0012010BD59
:1019B00094F83E000128F9D184F83E200FE094F815
:1019C0003F000128F2D184F83F2008E094F840005D
:1019D0000128EBD184F8402001E084F84120012265
:1019E000206800F0FDFD16492068164A884201D0A3
:1019F000904203D1436C43F400434364206888421F
:101A000013D0B0F1804F10D00F4988420DD00F494C
:101A100088420AD00E49884207D0904205D00D492D
:101A2000884202D00C49884204D1816801F0070144
:101A3000062903D0016841F001010160002010BDBA
:101A40000000014000040140000400400008004084
:101A5000000C0040004001400018004030B5044632
:101A60000D460068002200F0BBFD194B41F2111138
:101A700020688A10984202D0164B984209D1036A16
:101A80000B4206D1036A134203D1436C23F4004393
:101A900043642068036A0B4206D1016A114203D1F4
:101AA000016821F00101016001203DB1042D08D041
:101AB000082D09D084F84100002030BD84F83E0094
:101AC000FAE784F83F00F7E784F84000F4E7000005
:101AD000000001400004014070B50068364900254F
:101AE000DFED360A364C884227D16069401C00EE93
:101AF000100A606194F90210B8EE400A80EE201AD4
:101B000094ED030A00EE901AB8EEC00AF8EEE00A6F
:101B100000EE810ABDEEC00A84ED090AE16988423F
:101B20000AD104212748FFF799FF2648FFF738FD1F
:101B30002570E06A6561E06070BD2349884227D165
:101B4000A069401C00EE100AA06194F90310B8EEE1
:101B5000400A80EE201A94ED040AF8EEC00A00EE66
:101B6000101AB8EEC00A40EE010ABDEEE00A84ED9C
:101B70000A0A216A8842DFD104211448FFF76EFF68
:101B80001248FFF70DFD206B20616570A56170BDE7
:101B90000F498842FBD1D4E9090101F03FF82078D0
:101BA00061780843F3D106490120091D0870BDE89A
:101BB000704001F06DB8000000040140E4388E422E
:101BC000200000201401002000080040CC0000206C
:101BD000000001407047704770470000F8B5016889
:101BE00004460868CA684B6910F00F0F4FF00005F3
:101BF00059D003F0010602F49077374365D0C1074E
:101C000005D0D10503D5616C41F001016164410744
:101C100005D5D90703D0616C41F0020161648107E9
:101C200005D5D90703D0616C41F004016164010757
:101C300007D502F02001314303D0616C41F0080167
:101C40006164616C00293AD0800604D5900602D503
:101C5000204600F0F9FD20684069616CC0F38010F7
:101C6000090700D460B3204600F0C7FD2068406932
:101C7000400621D52068143050E8001F21F04001B3
:101C800040E80012002AF5D1E06BA8B16E49016569
:101C9000E06BFEF7FFFE002811D0E06B016D01B094
:101CA000BDE8F040084783060FD593060DD52046C2
:101CB000BDE8F84000F0C8BD2046FFF78DFFF8BD35
:101CC0002046FFF789FF6564F8BD266B2023012EAF
:101CD0007DD1C6067BD5D60679D5086848680090C0
:101CE00048694FF00206400641D5E16B086840683C
:101CF0000004000CE8D0A28D8242E5D9E085C869D5
:101D0000B0F5807F2DD020680C3050E8001F21F402
:101D1000807140E80012002AF5D12068143050E8A4
:101D2000001F21F0010140E80012002AF5D12068CF
:101D3000143050E8001F21F0400140E80012002A52
:101D4000F5D184F84230256320680C3050E8001F3C
:101D500021F0100140E80012002AF5D1E06BFEF7F7
:101D600050FE6663A08DE18D401A81B22AE0A08DFD
:101D7000E18D401A81B2E08D0028A5D00029A3D0C2
:101D800022680C3252E8000F20F4907042E80007FD
:101D9000002FF5D12068143050E8002F22F0010206
:101DA00040E80027002FF5D184F8423025632068F1
:101DB0000C3050E8002F22F0100240E80023002BE6
:101DC000F5D166632046FFF706FFF8BDFFE705067D
:101DD0002BD5150629D594F841002128F5D1A06806
:101DE000B0F5805F01D12069B0B1206A411C216249
:101DF000216800784860E08C401E0004000CE084FC
:101E0000E3D12068C16821F08001C1602068C16809
:101E100041F04001C160D8E7206A0088C0F30800A3
:101E20004860206A801C2062E5E74006CDD5500658
:101E3000CBD5CA68204622F04002CA6084F84130FF
:101E400000F032F9C1E70000EB27000870B504008C
:101E500004D094F84100002510B106E0012070BDC7
:101E600084F84050204600F023F8242084F84100F4
:101E70002068C16821F40051C160204600F046FD91
:101E80002068016921F4904101612068416921F0D5
:101E90002A0141612068C16841F40051C160656454
:101EA000202084F8410084F842006563002070BD62
:101EB000F0B587B0044614216846FEF791FA334B1B
:101EC00022680024324902250326072731489A4216
:101ED00033D12F4A1432136843F010031360126891
:101EE00002F0100205920A6842F001020A600A68D4
:101EF00002F0010205920A6842F002020A600968D3
:101F000002AA01F0020105910115CDE9001582E850
:101F1000D0006946FEF7D0FD4020CDE9000502AAB9
:101F2000694682E8D0001C48FEF7C6FD0022114633
:101F30002520FEF72DFF252023E0184B9A4222D1C1
:101F4000134A1032136843F400331360126802F42A
:101F5000003205920A6842F001020A60096802AA8A
:101F600001F0010105910C21CDE9001582E8D000B6
:101F70006946FEF7A1FD002211462620FEF708FF64
:101F80002620FEF7F7FE07B0F0BD0000001001406C
:101F9000303802400000024000040240004400408B
:101FA00090F84230202B01D00220704721B11AB1A5
:101FB0000023036300F030BD0120704710B50446D4
:101FC00000680D49884208D10C480078FEF7B4FA41
:101FD00001220A490A48FFF7E3FF0A4920688842BC
:101FE00008D1064906480122491CBDE81040483086
:101FF000FFF7D6BF10BD0000001001400000002018
:102000005C010020004400402DE9F843044690F8AC
:102010004100984616460D46202802D00220BDE811
:10202000F88385B17EB100206064212084F84100EE
:10203000FEF740FEA6848146E684A0682027B0F51E
:10204000805F02D003E00120E9E7206910B12E464D
:1020500000250EE000260CE08021204600F0F7FC71
:10206000A8B9C6B116F8010B21684860E08C401E83
:10207000E084E08C4B464FF00002CDF80080002851
:10208000EAD14FF04001204600F0E1FC40B184F875
:1020900041700320C3E735F8020BC0F30800E3E703
:1020A00084F841700020BAE77047FEE70F4810B58A
:1020B0000D4901600221416000214FF4302281600E
:1020C000C0E903124FF4E002426101764176817665
:1020D000C17601774177FEF780FB002803D0BDE889
:1020E0001040FEF726BA10BD006400405C000020DE
:1020F0002DE9F04786B014216846FEF771F93048A3
:102100000024016841F004010160016801F004014C
:102110000591016841F080010160016801F08001D2
:102120000591016841F001010160016801F00101C0
:102130000591016841F008010160016801F00801A2
:102140000591016841F0020101600068DFF87480C8
:1021500000F002004FF44C4505900022294640460D
:10216000FEF7A2FDDFF860904FF4C0760022314602
:102170004846FEF799FDDFF854A077000022394663
:102180005046FEF791FD00950125CDE901546946C1
:1021900040460394FEF790FC0096CDE90154694651
:1021A00048460394FEF788FC0097CDE90154694640
:1021B00050460394FEF780FC06B0BDE8F0870000AF
:1021C00030380240000C024000080240000002408B
:1021D00010B586B00024174800940194029403942B
:1021E0000494134905940160A721C0E9011442F247
:1021F0000F71C0E9031444618461FFF723F908B14A
:10220000FEF797F94FF48050009069460948FFF7B0
:10221000DFF908B1FEF78DF9049404A90548059487
:10222000FFF7C8F8002801D0FEF783F906B010BD0B
:10223000000001408400002010B58EB000240794F7
:10224000089409940A940B941C2168460C94FEF798
:10225000C7F8234821490160A721C0E9011440F2D1
:10226000E731C0E903148461FFF7ECF808B1FEF729
:1022700060F94FF48050079007A91948FFF7A8F9B3
:1022800008B1FEF756F91648FFF755FB08B1FEF7FF
:1022900050F90B940BA912480C94FFF78BF808B176
:1022A000FEF747F9602000904FF4FA70CDE9010481
:1022B000002269460A480494FFF7D7FA08B1FEF7EE
:1022C00038F9042269460648FFF7CFFA08B1FEF74D
:1022D00030F90348FFF784FA0EB010BD0008004043
:1022E000CC00002010B596B000240F9410941194E7
:1022F000129413941C2168461494FEF771F820215F
:1023000007A8FEF76DF82D482B490160A721C0E909
:10231000011440F2E731C0E9031444618461FFF71E
:1023200091F808B1FEF705F94FF480500F900FA90E
:102330002248FFF74DF908B1FEF7FBF81F48FFF7F9
:10234000FAFA08B1FEF7F5F8139413A91B48149490
:10235000FFF730F808B1FEF7ECF8602000904FF47A
:10236000FA70CDE9010403940494059400226946AF
:1023700012480694FFF779FA08B1FEF7DAF80C2252
:1023800069460E48FFF771FA08B1FEF7D2F80794D4
:10239000089409944FF400500A94CDE90B4007A922
:1023A00006480E94FEF7DCFF08B1FEF7C2F80348BA
:1023B000FFF716FA16B010BD00040140140100200A
:1023C0000E4810B50C4901604FF4E1314160002125
:1023D00081600C22C160C0E904128161C161FFF714
:1023E00035FD08B1FEF7A5F8BDE81040012204490B
:1023F0000248FFF7D5BD0000001001405C0100203D
:10240000000000200C4810B50A4901604FF4E1318A
:102410004160002181600C22C160C0E90412816129
:10242000C161FFF713FD002803D0BDE81040FEF79F
:1024300080B810BD00440040A4010020FEE7FEE784
:1024400070477047FEF73CBC30B593B0302168460A
:10245000FDF7C6FF14210CA8FDF7C2FF1E4800259A
:10246000016841F080510160006800F080501190D7
:102470001A48016841F4804101600068022400F4B8
:102480008040119001200090000401908001CDE96E
:102490000640082008904FF4A870CDE909040420F4
:1024A0000B906846FEF790FD08B172B6FEE70CA9E6
:1024B0000F2081E831004FF4A0500F904FF480506E
:1024C000109005210CA8FEF795FC002801D072B6EB
:1024D000FEE713B030BD00004038024000700040FD
:1024E0000248016841F470010160704788ED00E026
:1024F0000148FFF7DCB80000840000200148FFF726
:10250000D6B80000CC000020F0B50268294C2A4D56
:102510002A4E2B4F2B4B4FF0804CA04209D06045E8
:1025200007D0A84205D0B04203D0B84201D09842AB
:1025300004D122F0700E4A6842EA0E02A0421BD07B
:10254000604519D0A84217D0B04215D0B84213D078
:10255000984211D01C4DA8420ED01C4DA8420BD061
:102560001B4DA84208D01B4DA84205D01A4DA842C9
:1025700002D01A4DA84203D122F44075CA682A43FA
:102580004D6922F080022A4302608A68C2620A68AA
:102590008262A04201D0984201D109690163012100
:1025A00041610169C90703D0016921F0010101619D
:1025B000F0BD0000000001400004004000080040A1
:1025C000000C004000040140004001400044014074
:1025D0000048014000180040001C0040002000405E
:1025E00010B501F01F030121046A99408C43046275
:1025F000016A9A401143016210BD10B5846842EA35
:10260000032224F47F440A432243826010BD82687F
:1026100022F070020A4342F0070181607047000017
:10262000F0B5036A026A22F001020262426884691C
:10263000124E24F073050C682C4323F002058B68BE
:102640002B430D4DA84201D0B04205D123F008071D
:10265000CB683B4323F00403A84201D0B04205D12C
:102660004D6922F4407215438A692A4342608461AD
:10267000496841630362F0BD00000140000401406D
:10268000F0B5026A036A23F01003036243688469A9
:102690000D6824F4E64444EA05248D6822F0200203
:1026A00042EA05120F4D104EA84201D0B04206D1A9
:1026B000CF6822F0800242EA071222F04002A842CC
:1026C00001D0B04207D14D6923F4406343EA85034A
:1026D0008D6943EA850343608461496881630262CE
:1026E000F0BD00000000014000040140F0B5026AA6
:1026F000036A23F4807303624368C46922F400729E
:1027000024F073050C68124E2C438D6842EA0522B2
:102710000E4DA84201D0B04206D1CF6822F400622B
:1027200042EA072222F48062A84201D0B04207D1D7
:102730004D6923F4405343EA05138D6943EA0513B9
:102740004360C4614968C1630262F0BD000001409A
:102750000004014030B5046A026A22F48052026229
:102760004268C3690D6823F4E64343EA05238D6894
:1027700024F4005444EA0534084DA84202D0084D20
:10278000A84204D14D6922F4804242EA8512426097
:10279000C36149680164046230BD0000000001406B
:1027A0000004014010B5036A046A24F001040462C5
:1027B000846924F0F00444EA021423F00A020A4374
:1027C0008461026210BD10B5036A046A24F010042B
:1027D0000462846923F0A00324F4704444EA0232C2
:1027E00043EA01118261016210BD10B5806B0021C6
:1027F000C185C184FFF7F0F910BD01680C3151E8C3
:10280000002F22F4907241E80023002BF5D10168DB
:10281000143151E8002F22F0010241E80023002B7F
:10282000F5D1016B012909D101680C3151E8002F64
:1028300022F0100241E80023002BF5D1202180F87E
:10284000421000210163704708B590F84210222918
:1028500001D0022008BD82684FF480539A4201D112
:10286000016921B1816A9A421BD04AB10AE002682B
:10287000816A5268C2F308020A80816A891C08E0F2
:10288000026972B10268526802F07F020A70816ABE
:10289000491C8162C18D491E0904090CC18503D000
:1028A0001BE002685268F1E70168CA6822F0200262
:1028B000CA600168CA6822F48072CA6001684A6905
:1028C00022F001024A61202180F842100021416378
:1028D000026B012A03D0FFF771FB002008BD0163E2
:1028E00001680C3151E8002F22F0100241E800236A
:1028F000002BF5D101680A68D20602D50A6849683A
:102900000091818DFFF767F9E7E7000070B5044695
:1029100000680169E26821F44051114301612169B5
:10292000A068E26908436169114308432168CA68E5
:1029300049F20C639A430243CA6020684169A26964
:1029400021F440711143416131492068884202D02D
:102950003049884202D1FEF7F7FA01E0FEF7E4FAC7
:10296000E2690023192164253226B2F5004F62681E
:1029700028D0A0FB0101930F9200FDF775FC0146E2
:10298000B0FBF5F06FF01802504301EB800006EB4E
:102990000010B0FBF5F000F0F002B1FBF5F002EB37
:1029A0000012B1FBF5F06FF01803584301EB800003
:1029B00006EB0010B0FBF5F000F00F0021681044AA
:1029C000886070BDA0FB010192185B41FDF74CFCD3
:1029D0000146B0FBF5F00201B1FBF5F06FF0180312
:1029E000584301EB800006EBC000B0FBF5F000F0AF
:1029F000F80002EB4002B1FBF5F0584301EB800018
:102A000006EBC000B0FBF5F000F00700D6E70000D1
:102A1000001001400014014081628285C2850021BE
:102A20004164222180F84210016921B10168CA681D
:102A300042F48072CA6001684A6942F001024A6148
:102A40000068C16841F02001C160002070472DE995
:102A5000F843984617460D460446089E24E0701C2D
:102A600022D0FEF727F9A0EB0800B0421AD8CEB169
:102A70002068C168490717D5802D15D0402D13D087
:102A80000168C94309070FD4016800254068009018
:102A90002046FFF7B2FE0820606484F84050012011
:102AA000BDE8F8830320FBE72068006835EA0000F2
:102AB00004D00020B842D2D00020F1E70120F9E78D
:102AC0000148FFF78BB800005C0100200148FFF7C8
:102AD00085B80000A4010020FEE70907090E0028C0
:102AE00004DB00F1E02080F80014704700F00F00D4
:102AF00000F1E02080F8141D70470000FEF7E8F8B0
:102B0000FFF7A2FCFFF7F4FAFFF796FBFFF7EAFBEB
:102B1000FFF756FCFFF776FCFFF7C8FAFFF758FB04
:102B20000348FDF73BFF0348FEF7FAFCFEE7000011
:102B30005C000020840000202DE9F0472A4C00268C
:102B40002DED028B0D46E66126620746C4E90B01B6
:102B500000F0B6F8E0689FED258A4FF0010804F117
:102B6000040987421BD02178C9B9874201DD381A90
:102B700000E0C01B00EE100A04211D48B8EEC00A98
:102B8000C0EE080ABCEEE00A84ED070AFEF702FF79
:102B90001748FEF7C5FC84F8008089F800602069BA
:102BA00085421CD06178002919D1854201DD281A9F
:102BB00000E0401B00EE100A04210E48B8EEC00AE7
:102BC000C0EE080ABCEEE00A84ED080AFEF7E2FE59
:102BD0000848FEF7A5FC84F8018089F80060BDEC88
:102BE000028BBDE8F0870000200000206666663C8E
:102BF00014010020CC000020074800215A22C0E91F
:102C00000312017041708170C17041618161C161C5
:102C100001624162816270472000002070B58AB075
:102C20000C46054624216846FDF7DAFB154E164989
:102C300006F13402F088ADF80000280E1070280C60
:102C40005070280A9070D570200E1071200C5071B1
:102C5000200A9071D471706BCDF80200B06BCDF882
:102C6000060018220DF10A00FDF775FB70798DF84A
:102C700022006423232269460448FFF7C5F90AB0FD
:102C800070BD0000200000201E020020A4010020D2
:102C90001CB5094932230A89ADF800208A7A8DF8DB
:102CA00002208DF8030048798DF80400052269465A
:102CB0000248FFF7A9F91CBD20000020A401002054
:102CC0002DE9F041144C01250F46E268DFF84C80F5
:102CD000AE1E4FF48061904203DDA5704FF00002FC
:102CE00003E005DAA6704FF001024046FDF7DCFF75
:102CF00020694FF40041874203DDE5704FF0010287
:102D000003E007DAE6704FF000024046BDE8F0410C
:102D1000FDF7CABFBDE8F08120000020000C024092
:102D20004FF04070E1EE100A704700000000000014
:102D30000000010203040607080900000000010268
:102D400003040000642D0008000000205C00000067
:102D5000C4010008C02D00085C0000203C080000F1
:102D6000E00100080000000000000000000000007A
:102D70000000000001000000100000000000000042
:102D80000024F4000000000000BBAA0AAA0B010006
:102D9000000000005A0000000000000000000000D9
:102DA0000000000000000000000000000000000023
:102DB0000000000000000000000000000000000013
:040000050800018965
:00000001FF
