:020000040800F2
:10000000480600209D0100088128000827250008D7
:100010000528000857070008B52D0008000000005B
:10002000000000000000000000000000852800081B
:1000300051090008000000008328000887280008F4
:10004000B7010008B7010008B7010008B7010008B0
:10005000B7010008B7010008B7010008B7010008A0
:10006000B7010008B7010008B7010008B701000890
:10007000B7010008B7010008B7010008B701000880
:10008000B7010008B7010008B7010008B701000870
:10009000B7010008B7010008B7010008B701000860
:1000A000B701000835290008B7010008B7010008AA
:1000B000B7010008B7010008B7010008B701000840
:1000C000B7010008B7010008B7010008B701000830
:1000D000B7010008652D0008712D0008B701000860
:1000E000B7010008B7010008B7010008B701000810
:1000F00041290008B7010008B7010008B70100084E
:10010000B7010008B7010008B7010008B7010008EF
:10011000B7010008B7010008B7010008B7010008DF
:10012000B7010008B7010008B7010008B7010008CF
:10013000B7010008B7010008B701000871070008FF
:100140005907000865070008B7010008B701000853
:10015000B7010008B7010008B7010008B70100089F
:10016000B7010008B7010008B7010008B70100088F
:10017000B7010008B7010008B7010008000000003F
:10018000B7010008B7010008DFF80CD000F062FAF0
:1001900000480047DD360008480600200648804732
:1001A00006480047FEE7FEE7FEE7FEE7FEE7FEE75C
:1001B000FEE7FEE7FEE7FEE72529000889010008C3
:1001C0002DE9F05F0546002092469B46884606468C
:1001D000814640241BE0284641464746224600F01F
:1001E00071F853465A46C01A914110D31146184629
:1001F000224600F058F82D1A67EB01084F462246B8
:100200000120002100F04FF817EB00094E41201E9D
:10021000A4F10104DFDC484631462A464346BDE8E6
:10022000F09FD2B201E000F8012B491EFBD27047CB
:100230000022F6E710B513460A4604461946FFF7B2
:10024000F0FF204610BD421C10F8011B0029FBD115
:10025000801A704700F0004230F000400AD0C10D13
:1002600001F56071C0F3160042EA0151C20840076F
:100270001143704700200146704730B50B460146D8
:1002800000202022012409E021FA02F59D4205D335
:1002900003FA02F5491B04FA02F52844151EA2F1DF
:1002A0000102F1DC30BD202A04DB203A00FA02F121
:1002B000002070479140C2F1200320FA03F3194354
:1002C00090407047202A04DB203A21FA02F00021F6
:1002D000704721FA02F3D040C2F120029140084356
:1002E000194670472DE9FE4F804681EA0300C00F92
:1002F0000C46009021F0004123F00045B8EB0200CD
:10030000A94105D24046214690461C460B4602466E
:1003100023F00040104347D0270DC7F30A00C3F372
:100320000A510290401A019040286BDAC3F313007F
:1003300040F4801B0098924620B10023D2EB030AC0
:1003400063EB0B0B01985946C0F140025046FFF792
:10035000AAFF06460D4650465946019A00F08CF910
:1003600010EB08006141002487EA115284EAE77328
:100370001A4340D0009A62B3019A012A4FEA075209
:1003800015DC001B61EB02014FF0004202EA07524C
:10039000CDE90042001C41F5801132462B4600F0A9
:1003A0008CF903B0BDE8F08F40462146F9E7001B09
:1003B00061EB0201001C41F5801300185B4120181D
:1003C000A2F5001747EB030140EAD570B6196D415D
:1003D00011E06D084FEA360645EAC0754FEA07524C
:1003E000001B61EB0201001C41F5801149084FEA36
:1003F00030000019514132462B4603B0BDE8F04FA2
:1004000000F04CB90098012240000023D0EB02021A
:1004100063EBE073009821464FEAE074B8EB00000C
:1004200061EB0401E9E783F000435BE781F0004101
:1004300058E72DE9FE4F81EA030404F0004421F05F
:10044000004100944FF0000B23F0004350EA0104F8
:100450005ED052EA03045BD0C3F30A54C1F30A55D9
:100460002C44A4F2F3340194A0FB0254C1F3130111
:1004700041F48011C3F3130343F4801301FB0244DE
:1004800000FB034E840A970A44EA815447EA8357E3
:10049000A4FB076802958D0A05FB07854FEA932C9C
:1004A00004FB0C542705029D4FEA065847EA16370D
:1004B000B5EB08056EEB070C870E920E47EA811725
:1004C00042EA8312A7FB0201B6EB0B0164EB0004C6
:1004D0002B0D43EA0C335E1844EB1C50DA465146B0
:1004E000E7FB0201C5F313044FEA0B3343EA14534D
:1004F0004FEA0432019C43EA0603A4F10C0402947F
:10050000009CCDE900B400F0D8F803B0BDE8F08F4E
:1005100000200146F9E72DE9F04D81EA030404F0DB
:10052000004B21F0004514464FF0000A23F0004133
:1005300050EA050220D054EA01021DD0C5F30A5743
:100540000246C5F31303C1F31300C1F30A5640F486
:10055000801543F48013A7EB0608101BD64608F25B
:10056000FD3873EB050002D308F1010801E0921891
:100570005B41B8F1000F03DA00200146BDE8F08DC1
:1005800000204FF48011064684460EE0171B73EBE3
:10059000050705D3121B63EB050306434CEA010C68
:1005A00049084FEA300092185B4150EA0107EDD14B
:1005B00052EA030012D082EA040083EA05010843EC
:1005C00005D0101BAB4106D20122002306E0002219
:1005D0004FF0004302E06FF0010253101AEB0600E7
:1005E0004CEB085110EB0A0041EB0B01BDE8F04D5C
:1005F00000F054B8C1F30A52C1F3130140F2FF33C3
:1006000041F480119A4202DA00200146704740F21C
:1006100033439A42A2F2334202DC5242FFF752BE07
:10062000FFF741BE30B5041E71F1000404DB4FF04A
:100630000044404264EB0101141E73F1000405DB29
:100640001C464FF00043524263EB0403994208BF3B
:10065000904230BD064C074D06E0E06840F00103D3
:1006600094E8070098471034AC42F6D3FFF790FDAA
:100670005C3900087C390008202A06DBCB17203AB9
:1006800041FA02F043EAE07306E041FA02F3D04097
:10069000C2F12002914008431946704710B5141E5C
:1006A00073F1000408DA401C41F1000192185B412B
:1006B0001A4301D120F0010010BD2DE9F04D924602
:1006C0009B4611B1B1FA81F202E0B0FA80F2203219
:1006D0009046FFF7E8FD04460F4640EA0A0041EA6B
:1006E0000B0153465A46084313D0114653EA010002
:1006F00019D0C8F140025046FFF7E4FD05460E460A
:10070000504659464246FFF7CEFD084305D001202A
:1007100004E020463946BDE8F08D0020054346EA56
:10072000E0762C4337430A986305E40AA0EB0800FF
:100730000022FD0A44EA47540A3002D5002001464F
:10074000E9E7010510196941DDE90845001969412A
:10075000BDE8F04DA2E7FEE7014800F0A6B90000B1
:1007600068000020014800F0A0B9000068000020E7
:10077000014800F09AB900006800002010B52D492A
:10078000012201F1240491ED000AD4ED000A931E28
:10079000294830EE600AB5EEC00AF1EE10FA01DD2C
:1007A000027000E0037091ED010AD4ED010A30EE11
:1007B000600AB5EEC00AF1EE10FA01DD427000E009
:1007C000437091ED020AD4ED020A30EE600AB5EEF4
:1007D000C00AF1EE10FA01DD827000E0837091ED45
:1007E000030AD4ED030A30EE600AB5EEC00AF1EE5A
:1007F00010FA01DDC27000E0C37091ED040AD4ED7F
:10080000040A30EE600AB5EEC00AF1EE10FA01DD1E
:10081000027100E0037191ED050AD4ED050A30EE96
:10082000600AB5EEC00AF1EE10FA01DD427110BDAA
:10083000437110BDFC0100201F00002010B50446CC
:10084000642304223EA1404801F01CFE54F8020F2C
:1008500000BAE17820F0FF00084300EE100A3B48A0
:10086000B8EEC00A80ED000A6168E27909BA21F0A9
:10087000FF01114300EE101AB8EEC00A80ED010A24
:10088000A168E27A09BA21F0FF01114300EE101AC3
:10089000B8EEC00A80ED020AE168E27B09BA21F0F5
:1008A000FF01114300EE101AB8EEC00A80ED030AF2
:1008B0002169E27C09BA21F0FF01114300EE101A10
:1008C000B8EEC00A80ED040A6169E27D09BA21F040
:1008D000FF01114300EE101AB8EEC00A80ED050AC0
:1008E000A169E27E09BA21F0FF01114300EE101A5E
:1008F000B8EEC00A80ED060AE169E27F09BA21F08C
:10090000FF01114300EE101AB8EEC00A80ED070A8D
:1009100094F82110A41E012900D0002180F8201095
:1009200094F82410012900D0002180F8211094F8B7
:100930002510012900D0002180F8201010BD0000F2
:10094000313131310000000068010020FC0100203D
:10095000704772B6FEE700002DE9F041214C0121FD
:10096000214BE7780546002647B120464078421CD7
:10097000D2B2012F09D0022F18D02FE0AA2D2DD1ED
:10098000E17018706170BDE8F0810227E7701D54B6
:100990006270012D04D02DB1AA2D05D0E670F2E7CA
:1009A000A170F0E7A770EEE7E170ECE7262815D21A
:1009B0001D546270A078022804D1BB2DE3D102F04F
:1009C000CDFEE670A0780128DDD160782628DAD146
:1009D000BB2DD8D126210448FFF730FFE670A67062
:1009E000D1E7000004000020B0010020F0B590F82D
:1009F00020500468A468012D05D0022D03D0416A5F
:100A000041F480214DE014F0406F01D1E50045D55F
:100A1000C4F301640125A5401D608D684FF4C073C7
:100A20009DB1CE6835434E6845EAC605066803EBBE
:100A30000417F5514FF4C275076805EB04150E69EC
:100A40007E51097D012905D009E00E88CD6845EA6F
:100A50004655EBE701684E5946F480764E511179C0
:100A6000D2F805504FF4C67641EA0521056806EB39
:100A70000416A9511178D2F801204FF4C47541EA47
:100A80000221026805EB04155151006803EB0411C3
:100A9000425842F0010242500020F0BD416A41F448
:100AA000001141620120F0BD70472DE9F05F05465D
:100AB000006800244669D0F804908768D0F80CB02C
:100AC000D0F810A0D0F81880F10748D0F90714D05A
:100AD00001218160B80703D5284600F02EFA0CE00A
:100AE000780702D54FF4006407E0380702D54FF4C9
:100AF000805402E0284600F01FFAF80516D5296850
:100B00004FF480708860B80503D5284600F017FAC6
:100B10000CE0780502D544F4005407E0380502D50E
:100B200044F4804402E0284600F008FAF80316D5A1
:100B300029684FF480308860B80303D5284600F058
:100B400000FA0CE0780302D544F4004407E03803CF
:100B500002D544F4803402E0284600F0F1F9300771
:100B600007D55FEACB6004D52968102044F40074EF
:100B7000C86070074FF0080707D55FEA0B7004D50F
:100B80002868C760284600F0A5F9B00706D5286890
:100B9000C068800702D0284600F09DF9700607D58E
:100BA0005FEACA6004D52968102044F480640861B3
:100BB000B00607D55FEA0A7004D5286807612846A1
:100BC00000F08AF9F00606D528680069800702D08F
:100BD000284600F082F9B00308D55FEAC96005D560
:100BE000296810204860284600F078F9F00307D5FE
:100BF0005FEA097004D528684760284600F0A2F92A
:100C0000300446D55FEA497040D5F00504D55FEA67
:100C1000C87001D044F00104B00504D55FEA8870C3
:100C200001D544F00204700504D55FEA487001D58F
:100C300044F00404300529D518F0700F26D008F0D0
:100C40007000402815D006DC102809D020280AD0D2
:100C5000302816D10AE050280ED0602811D10EE0BD
:100C600044F008040DE044F010040AE044F02004CD
:100C700007E044F0400404E044F0800401E044F460
:100C800080742868816921F07001816129680420DD
:100C90004860002C05D0686A204368622846FFF748
:100CA00003FFBDE8F09F70B5040003D094F8200066
:100CB00010B104E0012070BD204600F081F82068EA
:100CC000016841F00101016000F0A8FA054605261F
:100CD00004E000F0A3FA401B0A2811D820684068FD
:100CE000C007F6D02068016821F00201016000F021
:100CF00095FA05460BE000F091FA401B0A2806D948
:100D0000606A40F40030606284F82060D2E72068B6
:100D100040688007EFD4207E0128206801683DD01C
:100D200021F080010160607E01282068016838D0D0
:100D300021F040010160A07E01282068016833D0C5
:100D400021F020010160E07E0128206801682ED09A
:100D500041F010010160207F01282068016829D03E
:100D600021F008010160607F01282068016824D01B
:100D700021F004010160D4E902010843D4E904121E
:100D8000114308436168491E08432168C861002077
:100D90006062012084F82000002070BD41F08001D5
:100DA000C0E741F04001C5E741F02001CAE721F06A
:100DB0001001CFE741F00801D4E741F00401D9E781
:100DC000F0B587B0044614216846FFF731FA3C4B72
:100DD0003C48DFF8E8E01968D4F800C0394A022539
:100DE0000326092710300024491CF4451FD119603F
:100DF000012907D1016841F000710160006800F02D
:100E000000700590106840F001001060106802AB9F
:100E100000F0010005904FF4C050CDE9000583E8D3
:100E2000D0006946284800F0FBF807B0F0BDDFF8B5
:100E30009CE0F445F9D1D0F800C04CF0806CC0F8CB
:100E400000C0D0F800C001290CF0806CCDF814C0AF
:100E5000196007D1016841F000710160006800F07D
:100E600000700590106840F002001060106802AB3E
:100E700000F0020005904FF44050CDE9000583E8F2
:100E8000D0006946124800F0CBF8002211463F20FE
:100E900000F032FA3F2000F021FA002211464020F3
:100EA00000F02AFA402000F019FA002211464120F1
:100EB00000F022FA412000F011FAB6E70064004089
:100EC000000000203038024000000240006800406E
:100ED0000004024070477047704770477047000039
:100EE00070B5044690F82000012804D0606A40F4F0
:100EF0000020606218E0022084F820002068016869
:100F000021F00101016000F089F905460EE000BF03
:100F100000F084F9401B0A2808D9606A40F40030C8
:100F20006062052084F82000012070BD20684068C0
:100F3000C007EDD1606270BD704770477047704761
:100F40007047704770472DE9F0410446876D00F007
:100F500065F9064694F835000025022806D0802061
:100F6000606584F834500120BDE8F0812068016894
:100F700021F0160101602068416921F08001416182
:100F8000206C08B9A06C20B12068016821F008012C
:100F900001602068016821F0010101600CE000F0AF
:100FA0003DF9801B052807D920206065032084F8BF
:100FB000350084F83450D7E720680068C007EED1C8
:100FC00094F85C103F208840B860012084F8350018
:100FD00084F834500020C7E790F83510022903D078
:100FE0008021416501207047052180F83510006897
:100FF000016821F0010101600020704770B50446CE
:1010000000F00CF90546601C02D004480078044446
:1010100000F004F9401BA042FAD370BD0800002084
:101020002DE9F84FDFF8BCA10022012503264FF07F
:101030000F090AF1040BAAF1040E00BF0B6805FAB0
:1010400002F42340A34270D10F7907F00307012F68
:1010500001D0022F16D187684FEA420806FA08FC31
:1010600027EA0C07D1F80CC00CFA08FC4CEA070C74
:10107000C0F808C04768A7430C79C4F30014944033
:101080003C4344600C79E443A4070AD0C4684FEAA7
:10109000420C06FA0CF7BC438F6807FA0CF727439B
:1010A000C7600C7904F00304022C12D1D40800EBC1
:1010B000840CDCF820405707FF0E09FA07F824EAF1
:1010C0000804D1F8108008FA07F848EA0408CCF8B8
:1010D000208004684FEA420C06FA0CF7BC430F79F3
:1010E00007F0030707FA0CF7274307604C6814F46E
:1010F000403F70D03C4C276847F480472760246805
:1011000022F0030704F480440094384C07EB040CED
:10111000DCF8084897074FEA177809FA08F7BC4344
:10112000334FB84202D1002724E054E0314FB84297
:1011300001D101271EE0304FB84201D1022719E04A
:101140002E4FB84201D1032714E02D4FB84201D1F0
:1011500004270FE02B4FB84201D105270AE02A4FA0
:10116000B84201D1062705E0284FB84201D1072730
:1011700000E0082707FA08F72743CCF80878DAF8E0
:1011800000405746D1F804C09C435FEACC2C00D500
:101190001C433C60DBF800405F46D1F804C09C4330
:1011A0005FEA8C2C00D51C433C60DEF8004077469B
:1011B000D1F804C09C435FEA8C3C00D51C433C60E2
:1011C000084F083F3C68D1F804C09C435FEACC3C20
:1011D00000D51C433C60521C102AFFF42FAFBDE821
:1011E000F88F0000083C01404438024000300140C4
:1011F000000002400004024000080240000C0240CF
:10120000001002400014024000180240001C02407E
:101210000AB1816170470904FBE70000014880685A
:1012200070470000080000200248816802781144DD
:1012300081607047080000200B4810B5016841F438
:1012400000710160016841F480610160016841F44E
:1012500080710160032000F06FF80F2000F006F8A5
:1012600000F024F8002010BD003C024070B50D4D88
:1012700004464FF47A712878B1FBF0F00A49096806
:10128000B1FBF0F000F00AFB48B9102C07D20022A5
:101290002146501E00F030F800206C6070BD012027
:1012A00070BD000008000020140000200A4808B5A6
:1012B000016841F480410160006800F480400090C2
:1012C0000548001F016841F080510160006800F08E
:1012D0008050009008BD000044380240002809DB1F
:1012E00000F01F02012191404009800000F1E02040
:1012F000C0F8001170470000F0B40E4B1B680C469C
:10130000C3F30223C3F10705042D00D90425191DD9
:10131000072901D2002300E0DB1E012606FA05F1B1
:10132000491E214099409E40761E16403143F0BC34
:1013300001F056BD0CED00E0064900F00702086818
:101340004FF6FF03184040EA0220034A10430860AA
:10135000704700000CED00E00000FA052DE9F047B1
:101360000E46050065D0DFF81481D8F80000F7B20A
:1013700000F00700B04207D288F80070D8F80000EB
:1013800000F00700B04254D128683D4C810712D5C7
:10139000400703D5206840F4E0502060287800071B
:1013A00003D5206840F4604020602068A96820F0E0
:1013B000F000084320602878C0072DD030496868C5
:1013C0000839012812D0022813D0032811D0096847
:1013D000890700292DDA216821F0030101432160EA
:1013E000FFF71CFF814641F2883A0EE00968890345
:1013F000EFE709688901ECE7FFF710FFA0EB0901AF
:10140000514502D90320BDE8F0872068696800F0E3
:101410000C00B0EB810FEFD1D8F80010404601F07E
:101420000701B14207D90770006800F00700B04219
:1014300001D00120E7E72878400705D52068E96852
:1014400020F4E050084320602878000706D5206883
:10145000296920F4604040EAC100206000F038F8BB
:101460002168084AC1F30311515CC840064908606D
:1014700006480068FFF7FAFE0020C4E7003C02407F
:1014800008380240E0380008140000200C0000205A
:101490000448054900680968044AC1F38221515C87
:1014A000C84070471400002008380240F038000897
:1014B0000448054900680968044AC1F34231515C97
:1014C000C84070471400002008380240F038000877
:1014D000154810B5006810F00C02144813D04110E4
:1014E000042A0FD0082A0ED10F4C241F226823682B
:1014F00002F03F025B0207D52068C0F38810A0FB12
:10150000010106E0084610BD2168C1F38811A1FB66
:1015100000010023FEF754FE2168C1F30141491C7C
:101520004900B0FBF1F010BD083802400024F4007F
:101530002DE9F84F04006ED02078DFF84C93C007F7
:10154000A9F104054AD009F104000168C1F3810141
:10155000012908D00068C0F3810002280AD1D9F817
:101560000000400206D52868800337D5606800284F
:10157000E1D033E06068B0F5803F10D0B0F5A02F27
:10158000286810D020F480302860286820F480205B
:1015900028606068A8B1FFF741FE06460DE02868A4
:1015A00040F48030F4E740F480202860F7E700BF83
:1015B000FFF734FE801B642873D828688003F7D5B2
:1015C0000CE0FFF72BFE064605E000BFFFF726FE06
:1015D000801B6428F0D828688003F7D42078DFF8CF
:1015E000AC8280074FF0000A3ED5A748001D016875
:1015F00011F00C0F08D00068C0F3810002280BD155
:10160000D9F80000400207D42868800716D5E068A2
:10161000012800D112E033E1E068B8B10120C8F838
:101620000000FFF7FBFD064605E000BFFFF7F6FDF3
:10163000801B0228C0D828688007F7D52868216950
:1016400020F0F80040EAC10028600DE0C8F800A0D2
:10165000FFF7E4FD064604E0FFF7E0FD801B0228EB
:101660001FD828688007F7D42078000722D5864F36
:1016700087486169703771B101210160FFF7CEFDC4
:10168000064604E0FFF7CAFD801B022809D8386827
:101690008007F7D50EE0C0F800A0FFF7BFFD0646B3
:1016A00005E082E0FFF7BAFD801B02287DD838688C
:1016B0008007F7D42078400768D5DFF8CCB1002741
:1016C0000BF13C0BDBF80000C0000BD4DBF8001082
:1016D00041F08051CBF80010DBF80000012700F04A
:1016E000805000906B4E3068C00510D4306840F4D4
:1016F00080703060FFF792FD009005E0FFF78EFDEF
:101700000099401A022850D83068C005F6D55E4EC0
:10171000A0686C3601280FD00528306810D020F062
:1017200001003060306820F004003060A068B8B17B
:10173000FFF774FD00900FE0306840F00100F4E71F
:1017400040F004003060F7E7FFF768FD0099411AA8
:1017500041F28830814266D830688007F4D50EE0C7
:10176000FFF75CFD009007E0FFF758FD0099411A74
:1017700041F28830814256D830688007F4D42FB1C6
:10178000DBF8001021F08051CBF80010A069C8B33D
:101790003D49091D0968C1F3810102294AD0022887
:1017A000504607D0C8F8600000E03CE0FFF736FD87
:1017B00004463BE04746C8F86000FFF72FFD0646A9
:1017C00005E000BFFFF72AFD801B02282BD8286800
:1017D0008001F7D4D4E907010843A16A2E4A4908D9
:1017E00002EB0141626A41EA8211084394F82C102D
:1017F00040EA0161C9F8001001203866FFF70EFDCC
:10180000044606E03EE000BFFFF708FD001B02288B
:1018100009D828688001F7D534E000BFFFF7FEFC47
:10182000001B022802D90320BDE8F88F2868800138
:10183000F4D427E00128F7D0D9F80000E26900F4D9
:10184000800191421CD1226A00F03F01914217D1E0
:1018500047F6C071626A0140B1EB821F10D1A26AE3
:101860004FF0FF3300F4403103EB5202B1EB024F73
:1018700006D194F82C1000F07060B0EB016F01D02D
:101880000120D1E70020CFE70438024000004742A2
:10189000800E4742007000400000FFFF10B5401E60
:1018A000B0F1807F01D3012010BD4FF0E0246061D2
:1018B0000F21601701F094FA0020A0610720206139
:1018C000002010BD7047704770B590F83C20012A89
:1018D00032D0012480F83C40022280F83D20036889
:1018E0005A689D6822F070060A6832435A60134BAA
:1018F00002689A4214D0B2F1804F11D0104B9A4234
:101900000ED0104B9A420BD00F4B9A4208D00F4B7F
:101910009A4205D00E4B9A4202D00E4B9A4204D105
:10192000496825F080031943916080F83D4000210B
:1019300080F83C10084670BD022070BD00000140D8
:101940000004004000080040000C0040000401407A
:10195000004001400018004010B5040003D094F886
:101960003D0010B107E0012010BD002084F83C00CC
:10197000204600F01FF8022084F83D00211D206859
:1019800000F0E4FF012084F8460084F83E0084F86B
:101990003F0084F8400084F8410084F8420084F855
:1019A000430084F8440084F8450084F83D0000209A
:1019B00010BD000008B5154A0168154891420ED1C6
:1019C000016841F0010101600068002200F001009F
:1019D000009011461920FFF78FFC192010E00D4AE6
:1019E000914211D1016841F00201016000680022BA
:1019F00000F00200009011462C20FFF77DFC2C2007
:101A0000BDE80840FFF76ABC08BD000000000140C7
:101A1000443802400004014090F83D10012901D0F3
:101A200001207047022180F83D100168CA6842F029
:101A30000102CA6000681149884214D0B0F1804F99
:101A400011D00F4988420ED00E4988420BD00E4962
:101A5000884208D00D49884205D00D49884202D0FD
:101A60000C49884204D1816801F00701062903D09E
:101A7000016841F001010160002070470000014051
:101A80000004004000080040000C00400004014039
:101A9000004001400018004070B5044690F83C003A
:101AA0000025012817D0012684F83C60022084F824
:101AB0003D002068826822F0770222F47F42826033
:101AC0000868502838D00DDC20284FD005DC90B3B2
:101AD000102811D14AE0022070BD302846D040289D
:101AE0000AD13BE060282FD070280DD0B0F5805F80
:101AF00003D0B0F5005F12D0012584F83D600020CE
:101B000084F83C00284670BDCB68D1E901212068EB
:101B100000F088FF2068816841F0770109E0CB6818
:101B2000D1E90121206800F07DFF2068816841F43F
:101B300080418160E1E719E0CA684968206800F0E7
:101B400083FF5021206806E0CA684968206800F0D9
:101B50008CFF6021206800F06FFFCEE7CA684968FB
:101B6000206800F071FF40212068F4E722680146F8
:101B70001046F0E770472DE9F04104460068C6685A
:101B800005694FF00007A90713D5B10711D5F91E54
:101B9000016101202077206880698007204602D0FB
:101BA000FFF7E8FF04E000F07EF8204600F07CF844
:101BB0002777680716D5700714D521686FF00400E1
:101BC0000861022020772068806910F4407F204659
:101BD00002D0FFF7CFFF04E000F065F8204600F0E8
:101BE00063F82777280715D5300713D521686FF0DC
:101BF00008000861042020772068C069800720461B
:101C000002D0FFF7B7FF04E000F04DF8204600F0E7
:101C10004BF82777E80616D5F00614D521686FF043
:101C200010000861082020772068C06910F4407F08
:101C3000204602D0FFF79EFF04E000F034F8204673
:101C400000F032F82777E80708D0F00706D02168BF
:101C50006FF001000861204600F028F8280608D53A
:101C6000300606D521686FF0800008612046FFF736
:101C700029FE680608D5700606D521686FF0400079
:101C80000861204600F0F2F9A8060AD5B00608D58A
:101C900021686FF0200008612046BDE8F041FFF7A1
:101CA00012BEBDE8F0817047704700002DE9F05F7B
:101CB000E3492DED028B006888427DD1E149E24A7B
:101CC00001F1240491ED000AD4ED000A30EE600A1F
:101CD000B0EEC00A10EE100A904201DB012300E0D2
:101CE0000023DA48037091ED010AD4ED010A30EEC9
:101CF000600AB0EEC00A10EE103A934201DB0123F5
:101D000000E00023437091ED020AD4ED020A30EEA8
:101D1000600AB0EEC00A10EE103A934201DB0123D4
:101D200000E00023837091ED030AD4ED030A30EE46
:101D3000600AB0EEC00A10EE103A934201DB0122B5
:101D400000E00022C27091ED040AD4ED040A4FF0C5
:101D50007E5330EE600AB0EEC00A10EE102A9A42AE
:101D600001DD012200E00022027191ED050AD4EDAF
:101D7000050A8B4630EE600AB0EEC00A10EE101A6B
:101D8000994201DD012100E00021824605464171B2
:101D9000FEF7F4FCAD48801D01F052FD28789FED60
:101DA000AC8ADFF8A882A74D08F106084FF00A09AF
:101DB000183D08F1090600E039E1A6F1100768B303
:101DC00038784A46B0FBF2F109FB11034FF4805119
:101DD0002BB9B0FBF2F302FB13035B080BD0B0FB93
:101DE000F2F302FB1303CBB1B0FBF2F309FB1300D8
:101DF000400814D01AE001229648FFF709FA286833
:101E00000A30286098F9000094ED000A00EE900A6C
:101E1000F8EEE00A00EE880A84ED000A06E0306879
:101E200000220A3030608B48FFF7F2F99AF801007F
:101E300068B33A784846B2FBF0F109FB11234FF43E
:101E400000512BB9B2FBF0F300FB13235B080BD05E
:101E5000B2FBF0F300FB1323CBB1B2FBF0F309FBB1
:101E60001320400814D01AE001227A48FFF7D0F975
:101E700068680A30686098F9010094ED010A00EE84
:101E8000900AF8EEE00A00EE880A84ED010A06E006
:101E9000706800220A3070606E48FFF7B9F99AF84E
:101EA000020060B339784846B1FBF0F209FB121228
:101EB0002AB9B1FBF0F200FB121252080BD0B1FBB1
:101EC000F0F200FB1212D2B1B1FBF0F209FB1210DA
:101ED000400815D01CE0012240215F48FFF798F927
:101EE000A8680A30A86098F9020094ED020A00EE92
:101EF000900AF8EEE00A00EE880A84ED020A07E094
:101F0000B06800220A30B06040215348FFF780F9E2
:101F10009AF8030068B33A784846B2FBF0F109FB3F
:101F200011234FF400712BB9B2FBF0F300FB132324
:101F30005B080BD0B2FBF0F300FB1323CBB1B2FB79
:101F4000F0F309FB1320400814D01AE001224248A4
:101F5000FFF75EF9E8680A30E86098F9030094ED4D
:101F6000030A00EE900AF8EEE00A00EE880A84ED1B
:101F7000030A06E0F06800220A30F0603648FFF7F6
:101F800047F99AF804009FED358AD14650B1387868
:101F9000C107334823D031690022891C31610221F5
:101FA000FFF736F999F8050050B13878C1072D4888
:101FB00029D071690022891C71614021FFF728F93D
:101FC0009BED060A84ED060A9BED070A84ED070ADD
:101FD0003878401C3870BDEC028BBDE8F09F0122C0
:101FE0000221FFF715F92869801C286198F904007F
:101FF00094ED040A00EE900AF8EEE00A00EE880A7A
:1020000084ED040ACEE701224021FFF701F9686957
:10201000801C686198F9050094ED050A00EE900AAD
:10202000F8EEE00A00EE880A84ED050AC8E70E49DA
:102030008842D0D1BDEC028BBDE8F05F01F0A6BBB9
:1020400000040140FC010020CDCCCC3D1900002053
:102050006666663C000C024000080240CCCCCC3ADC
:102060000004024000000240000001407047704739
:1020700070470000F8B5016804460868CA684B69F3
:1020800010F00F0F4FF0000559D003F0010602F4D5
:102090009077374365D0C10705D0D10503D5616C72
:1020A00041F001016164410705D5D90703D0616C96
:1020B00041F002016164810705D5D90703D0616C45
:1020C00041F004016164010707D502F020013143AA
:1020D00003D0616C41F008016164616C00293AD061
:1020E000800604D5900602D5204600F0FFFC20684B
:1020F0004069616CC0F38010090700D460B32046CA
:1021000000F0CDFC20684069400621D520681430DD
:1021100050E8001F21F0400140E80012002AF5D1EC
:10212000E06BA8B16E490165E06BFEF755FF002832
:1021300011D0E06B016D01B0BDE8F04008478306A7
:102140000FD593060DD52046BDE8F84000F0CEBC73
:102150002046FFF78DFFF8BD2046FFF789FF656435
:10216000F8BD266B2023012E7DD1C6067BD5D60671
:1021700079D508684868009048694FF00206400623
:1021800041D5E16B086840680004000CE8D0A28DDE
:102190008242E5D9E085C869B0F5807F2DD02068FE
:1021A0000C3050E8001F21F4807140E80012002A32
:1021B000F5D12068143050E8001F21F0010140E8FB
:1021C0000012002AF5D12068143050E8001F21F0D9
:1021D000400140E80012002AF5D184F8423025631E
:1021E00020680C3050E8001F21F0100140E8001278
:1021F000002AF5D1E06BFEF7A6FE6663A08DE18DA7
:10220000401A81B22AE0A08DE18D401A81B2E08DA2
:102210000028A5D00029A3D022680C3252E8000F74
:1022200020F4907042E80007002FF5D120681430A8
:1022300050E8002F22F0010240E80027002FF5D1DE
:1022400084F84230256320680C3050E8002F22F0DB
:10225000100240E80023002BF5D166632046FFF70B
:1022600006FFF8BDFFE705062BD5150629D594F81E
:1022700041002128F5D1A068B0F5805F01D1206927
:10228000B0B1206A411C2162216800784860E08C6E
:10229000401E0004000CE084E3D12068C16821F0F6
:1022A0008001C1602068C16841F04001C160D8E789
:1022B000206A0088C0F308004860206A801C206201
:1022C000E5E74006CDD55006CBD5CA68204622F0BA
:1022D0004002CA6084F8413000F024F9C1E70000F0
:1022E0008F2A000870B5040004D094F8410000253E
:1022F00010B106E0012070BD84F84050204600F087
:1023000023F8242084F841002068C16821F400519A
:10231000C160204600F04CFC2068016921F4904126
:1023200001612068416921F02A0141612068C1688A
:1023300041F40051C1606564202084F8410084F8B4
:1023400042006563002070BDF0B587B004461421DB
:102350006846FDF76DFF334B2268002432490225A1
:102360000326072731489A4233D12F4A1432136883
:1023700043F010031360126802F0100205920A681D
:1023800042F001020A600A6802F0010205920A683E
:1023900042F002020A60096802AA01F002010591F6
:1023A0000115CDE9001582E8D0006946FEF738FE38
:1023B0004020CDE9000502AA694682E8D0001C4809
:1023C000FEF72EFE002211462520FEF795FF252060
:1023D00023E0184B9A4222D1134A1032136843F477
:1023E00000331360126802F4003205920A6842F06A
:1023F00001020A60096802AA01F0010105910C219D
:10240000CDE9001582E8D0006946FEF709FE0022FA
:1024100011462620FEF770FF2620FEF75FFF07B06B
:10242000F0BD0000001001403038024000000240C2
:10243000000402400044004090F84230202B01D0BC
:102440000220704721B11AB10023036300F036BCAB
:102450000120704710B50068074988420AD1074833
:102460000078FEF779FABDE81040012203490448DC
:10247000FFF7E2BF10BD0000001001400400002083
:10248000200100202DE9F843044690F841009846C9
:1024900016460D46202802D00220BDE8F88385B1FB
:1024A0007EB100206064212084F84100FEF7B6FE72
:1024B000A6848146E684A0682027B0F5805F02D01C
:1024C00003E00120E9E7206910B12E4600250EE067
:1024D00000260CE08021204600F00BFCA8B9C6B114
:1024E00016F8010B21684860E08C401EE084E08C07
:1024F0004B464FF00002CDF800800028EAD14FF0A3
:102500004001204600F0F5FB40B184F84170032003
:10251000C3E735F8020BC0F30800E3E784F8417025
:102520000020BAE77047FEE70F4810B50D4901607B
:102530000221416000214FF430228160C0E9031282
:102540004FF4E0024261017641768176C1760177EF
:102550004177FEF7A8FB002803D0BDE81040FEF746
:10256000F8B910BD00640040400000200F4810B5CD
:102570000D4901600221416000214FF43022816049
:10258000C0E903124FF4E0024261017641768176A0
:10259000C17601774177FEF786FB002803D0BDE8BE
:1025A0001040FEF7D6B910BD00680040680000205A
:1025B0002DE9F04F87B014216846FDF739FE384801
:1025C0000024016841F004010160016801F0040188
:1025D0000591016841F080010160016801F080010E
:1025E0000591016841F001010160016801F00101FC
:1025F0000591016841F002010160016801F00201EA
:102600000591016841F0080101600068DFF89480DD
:1026100000F008004FF470750590002229464046EE
:10262000FEF7F6FDDFF880904FF47C76002231460D
:102630004846FEF7EDFDDFF874A000220321504666
:10264000FEF7E6FDDFF868B0B701002239465846CC
:10265000FEF7DEFD00950125CDE9015469464046AF
:102660000394FEF7DDFC0096CDE901546946484627
:102670000394FEF7D5FC03200090CDE90154694690
:1026800050460394FEF7CCFC0097CDE9015469460F
:1026900058460394FEF7C4FC07B0BDE8F08F000075
:1026A00030380240000002400008024000040240AE
:1026B000000C024010B586B0002418480094019424
:1026C00002940394049414490594016040F28F61CC
:1026D000C0E9011442F20F71C0E90314446184613E
:1026E000FFF73AF908B1FEF734F94FF48050009043
:1026F00069460A48FFF7D0F908B1FEF72AF90494B1
:1027000004A906480594FFF7DFF8002801D0FEF77A
:1027100020F906B010BD000000000140900000202C
:1027200010B586B0002417480094019402940394D5
:102730000494134905940160A721C0E901146321A1
:10274000C0E9031444618461FFF706F908B1FEF79C
:1027500000F94FF48050009069460A48FFF79CF951
:1027600008B1FEF7F6F8049404A906480594FFF7AB
:10277000ABF8002801D0FEF7ECF806B010BD000061
:1027800000040140D80000200E4810B50C4901603B
:102790004FF4E1314160002181600C22C160C0E949
:1027A00004128161C161FFF79DFD08B1FEF7D1F808
:1027B000BDE81040012204490248FFF73DBE000079
:1027C0000010014020010020040000200C4810B53A
:1027D0000A4901604FF4E1314160002181600C221F
:1027E000C160C0E904128161C161FFF77BFD00286F
:1027F00003D0BDE81040FEF7ACB810BD0044004067
:1028000068010020FEE71CB5002213466C46A35465
:10281000521C082AFBDB49420A0A8DF800208DF879
:102820000110010A8DF802108DF80300204600F017
:10283000A5FA1CBD00B589B040F20510009000203B
:10284000082104910190039002908DF81400014634
:1028500006AA5054491C0829FBDB02218DF81810E8
:102860008DF81910089008AB69460448FEF7BEF8C9
:10287000002801D0FEF76DF809B000BD400000202F
:10288000FEE770477047FEF7CFBC000030B593B04D
:1028900030216846FDF7CCFC14210CA8FDF7C8FCDC
:1028A0001E480025016841F080510160006800F079
:1028B000805011901A48016841F48041016000681D
:1028C000022400F480401190012000900004019047
:1028D0008001CDE90640082008904FF4A870CDE9AA
:1028E000090404200B906846FEF722FE08B172B678
:1028F000FEE70CA90F2081E831004FF4A0500F90A3
:102900004FF48050109005210CA8FEF727FD0028F9
:1029100001D072B6FEE713B030BD0000403802406F
:10292000007000400248016841F470010160704786
:1029300088ED00E00148FFF71EB90000900000207C
:102940000148FFF718B90000D8000020F0B5026870
:10295000294C2A4D2A4E2B4F2B4B4FF0804CA04236
:1029600009D0604507D0A84205D0B04203D0B84294
:1029700001D0984204D122F0700E4A6842EA0E0259
:10298000A0421BD0604519D0A84217D0B04215D044
:10299000B84213D0984211D01C4DA8420ED01C4D05
:1029A000A8420BD01B4DA84208D01B4DA84205D011
:1029B0001A4DA84202D01A4DA84203D122F4407504
:1029C000CA682A434D6922F080022A4302608A685D
:1029D000C2620A688262A04201D0984201D10969AC
:1029E0000163012141610169C90703D0016921F037
:1029F00001010161F0BD0000000001400004004041
:102A000000080040000C004000040140004001406C
:102A1000004401400048014000180040001C0040F4
:102A20000020004010B5846842EA032224F47F4469
:102A30000A432243826010BD826822F070020A437A
:102A400042F007018160704710B5036A046A24F000
:102A500001040462846924F0F00444EA021423F0BF
:102A60000A020A438461026210BD10B5036A046A57
:102A700024F010040462846923F0A00324F4704459
:102A800044EA023243EA01118261016210BD10B5CD
:102A9000806B0021C185C184FFF7EAFA10BD01688F
:102AA0000C3151E8002F22F4907241E80023002BF2
:102AB000F5D10168143151E8002F22F0010241E8FC
:102AC0000023002BF5D1016B012909D101680C31DC
:102AD00051E8002F22F0100241E80023002BF5D12D
:102AE000202180F8421000210163704708B590F85A
:102AF0004210222901D0022008BD82684FF4805381
:102B00009A4201D1016921B1816A9A421BD04AB12E
:102B10000AE00268816A5268C2F308020A80816A88
:102B2000891C08E0026972B10268526802F07F02F3
:102B30000A70816A491C8162C18D491E0904090C11
:102B4000C18503D01BE002685268F1E70168CA68DA
:102B500022F02002CA600168CA6822F48072CA604A
:102B600001684A6922F001024A61202180F842107E
:102B700000214163026B012A03D0FFF76BFC0020A8
:102B800008BD016301680C3151E8002F22F01002EA
:102B900041E80023002BF5D101680A68D20602D56E
:102BA0000A6849680091818DFFF761FAE7E7000044
:102BB00070B5044600680169E26821F44051114390
:102BC00001612169A068E269084361691143084312
:102BD0002168CA6849F20C639A430243CA602068BC
:102BE0004169A26921F44071114341613149206872
:102BF000884202D03049884202D1FEF759FC01E0F8
:102C0000FEF746FCE2690023192164253226B2F55D
:102C1000004F626828D0A0FB0101930F9200FDF7DE
:102C2000CFFA0146B0FBF5F06FF01802504301EB0C
:102C3000800006EB0010B0FBF5F000F0F002B1FBF5
:102C4000F5F002EB0012B1FBF5F06FF018035843FA
:102C500001EB800006EB0010B0FBF5F000F00F0078
:102C600021681044886070BDA0FB010192185B418F
:102C7000FDF7A6FA0146B0FBF5F00201B1FBF5F055
:102C80006FF01803584301EB800006EBC000B0FB67
:102C9000F5F000F0F80002EB4002B1FBF5F058430C
:102CA00001EB800006EBC000B0FBF5F000F0070080
:102CB000D6E70000001001400014014081628285C7
:102CC000C28500214164222180F84210016921B1AE
:102CD0000168CA6842F48072CA6001684A6942F0B9
:102CE00001024A610068C16841F02001C160002012
:102CF00070472DE9F843984617460D460446089E4E
:102D000024E0701C22D0FEF789FAA0EB0800B04244
:102D10001AD8CEB12068C168490717D5802D15D0C3
:102D2000402D13D00168C94309070FD4016800255D
:102D3000406800902046FFF7B2FE0820606484F8E7
:102D400040500120BDE8F8830320FBE720680068BD
:102D500035EA000004D00020B842D2D00020F1E7CC
:102D60000120F9E70148FFF785B9000020010020A4
:102D70000148FFF77FB900006801002000B587B067
:102D800032210091002108220191049203910291C5
:102D90008DF814100246069106AB69460448FDF70B
:102DA00025FE002801D0FDF7D4FD07B000BD0000CE
:102DB00040000020FEE700000FB4084B10B504A946
:102DC00002AA039800F0EEF8044602A9002000F0E1
:102DD00080FC204610BC5DF814FB0000D3360008D0
:102DE0000907090E002804DB00F1E02080F8001438
:102DF000704700F00F0000F1E02080F8141D7047CC
:102E000002E008C8121F08C1002AFAD170477047B3
:102E1000002001E001C1121F002AFBD17047000011
:102E20002DE9FF5F82B00021DDE90430020DDDF8FD
:102E300040B0034318D044F61050A2F2FF32424390
:102E40001514119801281FD0A5EB0B00401C5FEA58
:102E5000000A4FF000064E4FDFF83891B04650465A
:102E600015D5CAF1000413E0119801244AA30128E2
:102E700001D16FEA0B010298119AC0E90031C0E953
:102E8000024206B0BDE8F09FCBF10000DFE7044648
:102E90000021404A491842EB0450CDE9001012E0ED
:102EA000E00707D032463B4640464946FDF7C1FAA7
:102EB0008046894632463B4610461946FDF7B9FA28
:102EC00006460F466410002CEAD1DDE90401DDE975
:102ED0000023BAF1000F06DAFDF7ABFA42464B4683
:102EE000FDF7A7FA05E0FDF716FB42464B46FDF756
:102EF00012FB04460E460022284BFDF793FB03D835
:102F00004FF0FF30014607E00022254B20463146B6
:102F1000FDF7E8F9FDF76EFB102409E0002C0ADB51
:102F20000A220023FDF74CF9039B30321A55641E28
:102F300050EA0102F2D1641C039AC4F11103144453
:102F4000119A012A03D0012208430DD10AE0084357
:102F500004D000204FF0110B119072E7A3EB0B058A
:102F60006D1E0DE05B4504DD4FF0000205F101052B
:102F700004E003DA4FF00002A5F10105002AECD0CD
:102F800002981199C0E90231C0E9004579E70000D3
:102F9000000014400000F03F300000000000F0434B
:102FA0000000E03F2DE9FF4F95B09B46894606465D
:102FB00000250FE2252877D100242746F84A012171
:102FC000059400E0044316F8013F203B01FA03F0AA
:102FD0001042F7D130782A2811D06FF02F033078C3
:102FE000A0F13002092A16D8059A44F0020402EB37
:102FF000820203EB42021044761C0590EFE759F879
:10300000042B0592002A03DA504244F40054059040
:1030100044F00204761C30782E2816D116F8010FE1
:1030200044F004042A280DD06FF02F023078A0F16C
:103030003003092B09D807EB870302EB4303C718BA
:10304000761CF3E759F8047B761C30786C280FD097
:1030500006DC4C2817D068280DD06A2814D104E06B
:10306000742810D07A280FD10DE044F400140AE03F
:1030700044F4801401E044F440147278824202D196
:1030800004F58014761C761C307866280BD013DC8F
:10309000582877D009DC002875D04528F6D0462876
:1030A000F4D047281AD19DE118E0632835D0642870
:1030B00079D0652812D195E1702873D008DC672893
:1030C000F1D069286FD06E280DD06F2806D1B5E0F9
:1030D00073282CD0752875D0782874D05A46179943
:1030E00090476D1C75E1C4F30250022809D00328F3
:1030F0000DD0D9F8001004280DD00D6009F1040995
:1031000067E1D9F80010EA17C1E90052F6E7D9F8EB
:1031100000100D80F2E70D70F0E719F8041B8DF830
:10312000001000208DF80100EA46012003E059F864
:1031300004AB4FF0FF3061074FF0000102D40DE007
:1031400008F101018846B9420FDA8045F8DB1AF828
:1031500008100029F4D108E008F1010188468142F5
:10316000FADB1AF808100029F6D105985B46A0EBA7
:10317000080721463846179A00F094FA284400EBD5
:10318000080507E04DE029E10DE01AF8010B5A4669
:1031900017999047B8F10108F7D25B4621463846A7
:1031A000179A13E142E00A220092C4F302524FF050
:1031B000000A022A08D059F804CB032A4FEAEC711E
:1031C0000AD00DE029E02AE009F1070121F0070209
:1031D000F2E802C1914609E00FFA8CFC4FEAEC716B
:1031E000042A03D14FFA8CFC4FEAEC71002907DA6C
:1031F0000A460021DCF1000C61EB02012D2202E005
:10320000220504D52B228DF80420012203E0E207D9
:1032100001D02022F7E7904659E00A2102E010226F
:103220000DE010214FF0000A00910BE010224FF04A
:10323000000A44F004040827009203E008224FF03B
:10324000000A0092C4F30252022A05D059F804CBB6
:103250000021032A08D009E009F1070121F0070243
:10326000F2E802C1914605E01FFA8CFC042A01D164
:103270000CF0FF0C4FF00008220728D5702806D06C
:10328000009B83F0100353EA0A0305D00EE04022AE
:103290008DF80420012208E05CEA010206D0302209
:1032A0008DF804208DF8050002229046009B83F0E3
:1032B000080353EA0A030AD15CEA010201D162075A
:1032C00005D530228DF804204FF001087F1E5828C4
:1032D00004D034A003900EA802900DE036A0F9E7C8
:1032E00053466046009AFCF76BFF84460398825C65
:1032F0000298401E029002705CEA0100F0D1029830
:1033000006A9081A00F1200A600702D524F48034C7
:1033100000E00127574502DDA7EB0A0000E000208E
:1033200000EB0A01009005984144401A0590E00323
:1033300006D45B462146179A059800F0B3F9054478
:10334000002706E001A85A46C05D179990476D1CFA
:103350007F1C4745F6DBE0030CD55B462146179AF8
:10336000059800F09FF9054404E030205A4617996B
:1033700090476D1C0099481E00900029F5DC08E07C
:10338000029802995A460078491C02911799904771
:103390006D1CBAF10001AAF1010AF1DC65E100003F
:1033A000092801003031323334353637383961621B
:1033B00063646566000000003031323334353637DF
:1033C00038394142434445460000000000F058F9B6
:1033D0000544761C307800287FF4ECAD19B02846FF
:1033E000BDE8F08F620700D4062709F1070222F03A
:1033F000070CFCE80223E14603F000485FEA080CF2
:1034000002D00FF2702C0DE05FEA045C02D50FF2DF
:10341000682C07E05FEAC47C02D00FF2602C01E068
:10342000AFF2700C4FF0FF3823F00043CDF850C0DE
:1034300065280CD006DC452809D046281DD0472831
:103440003DD13DE0662818D067287ED138E00021C4
:10345000112F01DB112000E0781CCDE9000106A945
:103460000EA8FFF7DDFCDDE90F010E9A03910021A4
:10347000009207F1010A04914DE04FF000400097DF
:10348000CDE9011006A90EA8FFF7CAFCDDE90F027D
:1034900003920E9B11990022DDF80CA00093049278
:1034A00011B9791C00EB010AB7EB0A0004D4C0F192
:1034B000FF3007F1010A0490AAEB0700019044E0F5
:1034C000012F00DA01270021112F01DD112000E07A
:1034D0003846CDE9000106A90EA8FFF7A1FCDDE9F9
:1034E0000F010E9A0391002104910092BA46210720
:1034F0000CD40399514500DA8A46BAF1010F05DD73
:10350000009AAAF10101515C302908D0B84202DAD0
:1035100010F1040F06DA0121CDE9011015E0AAF13E
:103520000101E9E7002805DC049901440491AAEBB4
:10353000000102E0411C514500DD8A460499401A11
:10354000401C01904FF000400290200704D40198E5
:10355000504501DBCDF8048000208DF84F00029823
:103560000DF14F07B0F1004F25D02B200E9002989F
:103570004FF0020800280CDA404202902D200E90F5
:1035800007E00A210298FCF778FE3031029007F834
:10359000011DB8F10001A8F10108F2DC0298002831
:1035A000EFD1791E0E980870307800F0200040F0BE
:1035B000450007F8020D12A8C01B00F10708149877
:1035C000007800B1012000EB0A01019801EBE071E5
:1035D00005984144401A401E0590E00306D45B461E
:1035E0002146179A059800F05DF805441498007874
:1035F00018B15A46179990476D1CE00324D55B46D5
:103600002146179A059800F04DF805441CE00498EF
:10361000002807DBDDE90301884203DD0098405CF8
:10362000179901E0179930205A469047049805F100
:103630000105401C04900198401E019004D12E20E9
:103640005A46179990476D1CBAF10001AAF1010A78
:10365000DDDC05E017F8010B5A46179990476D1C01
:10366000B8F10001A8F10108F4DC5B462146179A85
:103670000598ABE62D0000002B00000020000000A4
:103680002DE9F041044600251E461746880404D45F
:1036900005E039462020B0476D1C641EF9D5284648
:1036A000BDE8F0812DE9F041044600251E46904614
:1036B000C80301D5302700E02027880404D505E0A1
:1036C00041463846B0476D1C641EF9D52846BDE812
:1036D000F0810A68531C0B6010707047FDF7ACFD59
:1036E000FFF7D4F8FEF764FFFFF71AF8FFF74CF87E
:1036F000FFF76CF8FEF718FFFEF7DCFFFEF736FF6A
:103700001148FDF7EDFB1148FDF7EAFBFFF792F8D2
:103710000F48FEF781F90F48FEF77EF90E4C0220A4
:10372000FDF76CFC94ED070ABDEEC00A10EE100A1E
:1037300094ED060A01B2BDEEC00A10EE100A00B206
:10374000FFF761F8EBE70000400000206800002070
:1037500090000020D8000020FC0100200A489FEDC6
:10376000090A80ED000A80ED010A80ED020A80ED71
:10377000030A80ED040A80ED050A80ED060A80ED5B
:10378000070A704700000000200200202DE9F047E2
:10379000284CCEB0E069FCF75DFD07468846A0697D
:1037A000FCF758FD05460E466069FCF753FDCDE970
:1037B00006012069FCF74EFDCDE90401E068FCF745
:1037C00049FDCDE90201A068FCF744FDCDE9000107
:1037D0006068FCF73FFD81468A462068FCF73AFDA9
:1037E00041EC100B0AA853EC102B80E8E001DDE956
:1037F0000601CDE90801DDE90401CDE90601DDE9B5
:103800000201CDE90401DDE90001CDE90201CDE9C4
:10381000009A09490EA8FFF7CFFA0EA8FCF713FD8E
:1038200082B24FF6FF730EA90448FEF72BFE4EB08E
:10383000BDE8F08720020020F83800086801002069
:1038400070B5044690F90000214D4FF48061401C92
:1038500033D001222846FDF7DBFC60784FF40041AD
:1038600001282CD001222846FDF7D2FC94F9022031
:1038700018484FF48071521C00D00122FDF7C8FC9B
:1038800094F90300144D4FF40071401C19D001222B
:103890002846FDF7BDFC21791048012913D00022EC
:1038A0000121FDF7B5FC607901280ED000222846E1
:1038B000BDE870408021FDF7ABBC0022CAE70022C2
:1038C000D1E70022E4E70122EAE70122EFE7000066
:1038D000000C0240000802400000024000040240C8
:1038E00000000000000000000102030406070809B0
:1038F00000000000010203046C31203D20252E321F
:10390000662C206C31203D20252E32662C20723111
:10391000203D20252E32662C207232203D20252E7F
:1039200032662C206D6D5F6C203D20252E32662C7A
:10393000206D6D5F72203D20252E32662C2076652D
:103940006C5F6C203D20252E32662C2076656C5FE6
:1039500072203D20252E32660D0A00007C390008B9
:103960000000002040000000002E0008BC390008C4
:103970004000002008060000102E00080000000093
:103980000000000001000000100000000000000026
:103990000024F4000000000000000000000000000F
:1039A0000000000005000000050000000500000008
:0C39B00005000000010000000100000004
:040000050800018965
:00000001FF
